{
  "_format": "hh-sol-artifact-1",
  "contractName": "ZuriElection",
  "sourceName": "contracts/ZuriElection.sol",
  "abi": [
    {
      "inputs": [
        {
          "internalType": "bytes32",
          "name": "merkleRoot",
          "type": "bytes32"
        }
      ],
      "stateMutability": "nonpayable",
      "type": "constructor"
    },
    {
      "inputs": [],
      "name": "ElectionHasEnded",
      "type": "error"
    },
    {
      "inputs": [],
      "name": "ElectionNotStarted",
      "type": "error"
    },
    {
      "anonymous": false,
      "inputs": [
        {
          "indexed": false,
          "internalType": "uint256",
          "name": "_candidateId",
          "type": "uint256"
        },
        {
          "indexed": false,
          "internalType": "string",
          "name": "_candidateName",
          "type": "string"
        }
      ],
      "name": "CandidateCreated",
      "type": "event"
    },
    {
      "anonymous": false,
      "inputs": [
        {
          "indexed": false,
          "internalType": "uint256[]",
          "name": "_winnerIds",
          "type": "uint256[]"
        },
        {
          "indexed": false,
          "internalType": "uint256",
          "name": "_winnerVoteCount",
          "type": "uint256"
        }
      ],
      "name": "ElectionEnded",
      "type": "event"
    },
    {
      "anonymous": false,
      "inputs": [
        {
          "indexed": false,
          "internalType": "address",
          "name": "account",
          "type": "address"
        }
      ],
      "name": "Paused",
      "type": "event"
    },
    {
      "anonymous": false,
      "inputs": [
        {
          "indexed": false,
          "internalType": "address",
          "name": "account",
          "type": "address"
        }
      ],
      "name": "Unpaused",
      "type": "event"
    },
    {
      "anonymous": false,
      "inputs": [
        {
          "indexed": false,
          "internalType": "uint256",
          "name": "_candidateId",
          "type": "uint256"
        },
        {
          "indexed": false,
          "internalType": "uint256",
          "name": "_candidateVoteCount",
          "type": "uint256"
        }
      ],
      "name": "VoteForCandidate",
      "type": "event"
    },
    {
      "inputs": [],
      "name": "Active",
      "outputs": [
        {
          "internalType": "bool",
          "name": "",
          "type": "bool"
        }
      ],
      "stateMutability": "view",
      "type": "function"
    },
    {
      "inputs": [],
      "name": "Ended",
      "outputs": [
        {
          "internalType": "bool",
          "name": "",
          "type": "bool"
        }
      ],
      "stateMutability": "view",
      "type": "function"
    },
    {
      "inputs": [
        {
          "internalType": "address",
          "name": "_newTeacher",
          "type": "address"
        }
      ],
      "name": "addTeacher",
      "outputs": [],
      "stateMutability": "nonpayable",
      "type": "function"
    },
    {
      "inputs": [
        {
          "internalType": "uint256",
          "name": "",
          "type": "uint256"
        }
      ],
      "name": "candidates",
      "outputs": [
        {
          "internalType": "uint256",
          "name": "id",
          "type": "uint256"
        },
        {
          "internalType": "string",
          "name": "name",
          "type": "string"
        },
        {
          "internalType": "uint256",
          "name": "voteCount",
          "type": "uint256"
        }
      ],
      "stateMutability": "view",
      "type": "function"
    },
    {
      "inputs": [],
      "name": "candidatesCount",
      "outputs": [
        {
          "internalType": "uint256",
          "name": "",
          "type": "uint256"
        }
      ],
      "stateMutability": "view",
      "type": "function"
    },
    {
      "inputs": [],
      "name": "chairman",
      "outputs": [
        {
          "internalType": "address",
          "name": "",
          "type": "address"
        }
      ],
      "stateMutability": "view",
      "type": "function"
    },
    {
      "inputs": [
        {
          "internalType": "address",
          "name": "_newChairman",
          "type": "address"
        }
      ],
      "name": "changeChairman",
      "outputs": [],
      "stateMutability": "nonpayable",
      "type": "function"
    },
    {
      "inputs": [],
      "name": "description",
      "outputs": [
        {
          "internalType": "string",
          "name": "",
          "type": "string"
        }
      ],
      "stateMutability": "view",
      "type": "function"
    },
    {
      "inputs": [],
      "name": "endElection",
      "outputs": [],
      "stateMutability": "nonpayable",
      "type": "function"
    },
    {
      "inputs": [],
      "name": "getCandidates",
      "outputs": [
        {
          "components": [
            {
              "internalType": "uint256",
              "name": "id",
              "type": "uint256"
            },
            {
              "internalType": "string",
              "name": "name",
              "type": "string"
            },
            {
              "internalType": "uint256",
              "name": "voteCount",
              "type": "uint256"
            }
          ],
          "internalType": "struct ZuriElection.Candidate[]",
          "name": "",
          "type": "tuple[]"
        }
      ],
      "stateMutability": "view",
      "type": "function"
    },
    {
      "inputs": [],
      "name": "getCands",
      "outputs": [
        {
          "components": [
            {
              "internalType": "uint256",
              "name": "id",
              "type": "uint256"
            },
            {
              "internalType": "string",
              "name": "name",
              "type": "string"
            },
            {
              "internalType": "uint256",
              "name": "voteCount",
              "type": "uint256"
            }
          ],
          "internalType": "struct ZuriElection.Candidate[]",
          "name": "",
          "type": "tuple[]"
        }
      ],
      "stateMutability": "view",
      "type": "function"
    },
    {
      "inputs": [
        {
          "internalType": "bytes32[]",
          "name": "proof",
          "type": "bytes32[]"
        },
        {
          "internalType": "bytes32",
          "name": "leaf",
          "type": "bytes32"
        }
      ],
      "name": "isValid",
      "outputs": [
        {
          "internalType": "bool",
          "name": "",
          "type": "bool"
        }
      ],
      "stateMutability": "view",
      "type": "function"
    },
    {
      "inputs": [],
      "name": "makeResultPublic",
      "outputs": [
        {
          "internalType": "uint256",
          "name": "",
          "type": "uint256"
        },
        {
          "internalType": "uint256[]",
          "name": "",
          "type": "uint256[]"
        }
      ],
      "stateMutability": "view",
      "type": "function"
    },
    {
      "inputs": [],
      "name": "pause",
      "outputs": [],
      "stateMutability": "nonpayable",
      "type": "function"
    },
    {
      "inputs": [],
      "name": "paused",
      "outputs": [
        {
          "internalType": "bool",
          "name": "",
          "type": "bool"
        }
      ],
      "stateMutability": "view",
      "type": "function"
    },
    {
      "inputs": [],
      "name": "position",
      "outputs": [
        {
          "internalType": "string",
          "name": "",
          "type": "string"
        }
      ],
      "stateMutability": "view",
      "type": "function"
    },
    {
      "inputs": [
        {
          "internalType": "address",
          "name": "_teacher",
          "type": "address"
        }
      ],
      "name": "removeTeacher",
      "outputs": [],
      "stateMutability": "nonpayable",
      "type": "function"
    },
    {
      "inputs": [],
      "name": "root",
      "outputs": [
        {
          "internalType": "bytes32",
          "name": "",
          "type": "bytes32"
        }
      ],
      "stateMutability": "view",
      "type": "function"
    },
    {
      "inputs": [
        {
          "internalType": "string[]",
          "name": "_prop",
          "type": "string[]"
        },
        {
          "internalType": "string[]",
          "name": "_candidates",
          "type": "string[]"
        }
      ],
      "name": "setUpElection",
      "outputs": [],
      "stateMutability": "nonpayable",
      "type": "function"
    },
    {
      "inputs": [],
      "name": "startElection",
      "outputs": [],
      "stateMutability": "nonpayable",
      "type": "function"
    },
    {
      "inputs": [
        {
          "internalType": "address",
          "name": "",
          "type": "address"
        }
      ],
      "name": "teachers",
      "outputs": [
        {
          "internalType": "bool",
          "name": "",
          "type": "bool"
        }
      ],
      "stateMutability": "view",
      "type": "function"
    },
    {
      "inputs": [],
      "name": "unpause",
      "outputs": [],
      "stateMutability": "nonpayable",
      "type": "function"
    },
    {
      "inputs": [
        {
          "internalType": "uint256",
          "name": "_candidateId",
          "type": "uint256"
        },
        {
          "internalType": "bytes32[]",
          "name": "hexProof",
          "type": "bytes32[]"
        }
      ],
      "name": "vote",
      "outputs": [],
      "stateMutability": "nonpayable",
      "type": "function"
    },
    {
      "inputs": [
        {
          "internalType": "address",
          "name": "",
          "type": "address"
        }
      ],
      "name": "voted",
      "outputs": [
        {
          "internalType": "bool",
          "name": "",
          "type": "bool"
        }
      ],
      "stateMutability": "view",
      "type": "function"
    },
    {
      "inputs": [
        {
          "internalType": "uint256",
          "name": "",
          "type": "uint256"
        }
      ],
      "name": "winnerIds",
      "outputs": [
        {
          "internalType": "uint256",
          "name": "",
          "type": "uint256"
        }
      ],
      "stateMutability": "view",
      "type": "function"
    },
    {
      "inputs": [],
      "name": "winnerVoteCount",
      "outputs": [
        {
          "internalType": "uint256",
          "name": "",
          "type": "uint256"
        }
      ],
      "stateMutability": "view",
      "type": "function"
    }
  ],
  "bytecode": "0x60806040523480156200001157600080fd5b50604051620032b9380380620032b98339818101604052810190620000379190620000f5565b60008060006101000a81548160ff02191690831515021790555033600060016101000a81548173ffffffffffffffffffffffffffffffffffffffff021916908373ffffffffffffffffffffffffffffffffffffffff1602179055506000600a60006101000a81548160ff0219169083151502179055506000600a60016101000a81548160ff0219169083151502179055506000600481905550806003819055505062000145565b600081519050620000ef816200012b565b92915050565b6000602082840312156200010857600080fd5b60006200011884828501620000de565b91505092915050565b6000819050919050565b620001368162000121565b81146200014257600080fd5b50565b61316480620001556000396000f3fe608060405234801561001057600080fd5b506004361061018e5760003560e01c806362d73eb8116100de578063aec2ccae11610097578063e810186911610071578063e81018691461041c578063ebf0c71714610438578063f0a47f7814610456578063fd27419b146104865761018e565b8063aec2ccae1461039e578063b8a20ed0146103ce578063c9b0a2a7146103fe5761018e565b806362d73eb8146103135780637284e4161461031d57806379bf09ab1461033b5780638456cb591461035757806387f7b9751461036157806395adfc5e1461037f5761018e565b80633f4ba83a1161014b57806352ff68461161012557806352ff6846146102b157806359f78468146102cd5780635c975abb146102d75780635f458aef146102f55761018e565b80633f4ba83a14610259578063403d131214610263578063477383f3146102935761018e565b806306a49fce1461019357806309218e91146101b15780632d35a8a2146101cf5780632f22850d146101ed5780633477ee2e1461020b5780633bc6e3091461023d575b600080fd5b61019b6104a2565b6040516101a89190612789565b60405180910390f35b6101b961065a565b6040516101c69190612811565b60405180910390f35b6101d76106e8565b6040516101e49190612993565b60405180910390f35b6101f56106ee565b6040516102029190612993565b60405180910390f35b610225600480360381019061022091906122c9565b6106f4565b60405161023493929190612a0e565b60405180910390f35b610257600480360381019061025291906121e0565b6107a6565b005b610261610934565b005b61027d600480360381019061027891906122c9565b610a0c565b60405161028a9190612993565b60405180910390f35b61029b610a30565b6040516102a891906127db565b60405180910390f35b6102cb60048036038101906102c691906121e0565b610a43565b005b6102d5610bd1565b005b6102df610d0c565b6040516102ec91906127db565b60405180910390f35b6102fd610d22565b60405161030a9190612789565b60405180910390f35b61031b610e27565b005b610325610f1c565b6040516103329190612811565b60405180910390f35b6103556004803603810190610350919061225d565b610faa565b005b61035f61123e565b005b610369611316565b604051610376919061276e565b60405180910390f35b61038761133c565b6040516103959291906129ae565b60405180910390f35b6103b860048036038101906103b391906121e0565b61148a565b6040516103c591906127db565b60405180910390f35b6103e860048036038101906103e39190612209565b6114aa565b6040516103f591906127db565b60405180910390f35b6104066114c1565b60405161041391906127db565b60405180910390f35b610436600480360381019061043191906121e0565b6114d4565b005b6104406115f0565b60405161044d91906127f6565b60405180910390f35b610470600480360381019061046b91906121e0565b6115f6565b60405161047d91906127db565b60405180910390f35b6104a0600480360381019061049b91906122f2565b611616565b005b6060600060045467ffffffffffffffff8111156104e8577f4e487b7100000000000000000000000000000000000000000000000000000000600052604160045260246000fd5b60405190808252806020026020018201604052801561052157816020015b61050e611ec4565b8152602001906001900390816105065790505b50905060005b600454811015610652576000600760008381526020019081526020016000209050806040518060600160405290816000820154815260200160018201805461056e90612c8d565b80601f016020809104026020016040519081016040528092919081815260200182805461059a90612c8d565b80156105e75780601f106105bc576101008083540402835291602001916105e7565b820191906000526020600020905b8154815290600101906020018083116105ca57829003601f168201915b50505050508152602001600282015481525050838381518110610633577f4e487b7100000000000000000000000000000000000000000000000000000000600052603260045260246000fd5b602002602001018190525050808061064a90612d0a565b915050610527565b508091505090565b6001805461066790612c8d565b80601f016020809104026020016040519081016040528092919081815260200182805461069390612c8d565b80156106e05780601f106106b5576101008083540402835291602001916106e0565b820191906000526020600020905b8154815290600101906020018083116106c357829003601f168201915b505050505081565b60045481565b60095481565b600760205280600052604060002060009150905080600001549080600101805461071d90612c8d565b80601f016020809104026020016040519081016040528092919081815260200182805461074990612c8d565b80156107965780601f1061076b57610100808354040283529160200191610796565b820191906000526020600020905b81548152906001019060200180831161077957829003601f168201915b5050505050908060020154905083565b6107ae610d0c565b156107ee576040517f08c379a00000000000000000000000000000000000000000000000000000000081526004016107e590612893565b60405180910390fd5b3373ffffffffffffffffffffffffffffffffffffffff16600060019054906101000a900473ffffffffffffffffffffffffffffffffffffffff1673ffffffffffffffffffffffffffffffffffffffff16148061089a575060011515600560003373ffffffffffffffffffffffffffffffffffffffff1673ffffffffffffffffffffffffffffffffffffffff16815260200190815260200160002060009054906101000a900460ff161515145b6108d9576040517f08c379a00000000000000000000000000000000000000000000000000000000081526004016108d090612873565b60405180910390fd5b6001600560008373ffffffffffffffffffffffffffffffffffffffff1673ffffffffffffffffffffffffffffffffffffffff16815260200190815260200160002060006101000a81548160ff02191690831515021790555050565b600060019054906101000a900473ffffffffffffffffffffffffffffffffffffffff1673ffffffffffffffffffffffffffffffffffffffff163373ffffffffffffffffffffffffffffffffffffffff16146109c4576040517f08c379a00000000000000000000000000000000000000000000000000000000081526004016109bb90612933565b60405180910390fd5b6109cc611774565b7f5db9ee0a495bf2e6ff9c91a7834c1ba4fdd244a5e8aa4e537bd38aeae4b073aa6109f5611815565b604051610a02919061276e565b60405180910390a1565b60088181548110610a1c57600080fd5b906000526020600020016000915090505481565b600a60019054906101000a900460ff1681565b610a4b610d0c565b15610a8b576040517f08c379a0000000000000000000000000000000000000000000000000000000008152600401610a8290612893565b60405180910390fd5b3373ffffffffffffffffffffffffffffffffffffffff16600060019054906101000a900473ffffffffffffffffffffffffffffffffffffffff1673ffffffffffffffffffffffffffffffffffffffff161480610b37575060011515600560003373ffffffffffffffffffffffffffffffffffffffff1673ffffffffffffffffffffffffffffffffffffffff16815260200190815260200160002060009054906101000a900460ff161515145b610b76576040517f08c379a0000000000000000000000000000000000000000000000000000000008152600401610b6d90612873565b60405180910390fd5b6000600560008373ffffffffffffffffffffffffffffffffffffffff1673ffffffffffffffffffffffffffffffffffffffff16815260200190815260200160002060006101000a81548160ff02191690831515021790555050565b610bd9610d0c565b15610c19576040517f08c379a0000000000000000000000000000000000000000000000000000000008152600401610c1090612893565b60405180910390fd5b600060019054906101000a900473ffffffffffffffffffffffffffffffffffffffff1673ffffffffffffffffffffffffffffffffffffffff163373ffffffffffffffffffffffffffffffffffffffff1614610ca9576040517f08c379a0000000000000000000000000000000000000000000000000000000008152600401610ca090612933565b60405180910390fd5b6001600a60016101000a81548160ff021916908315150217905550610ccc61181d565b50507f38d8ebbbb4803f034f19b4cf2f19bfb84cc5dea177696c1f80a19357d5602e046008600954604051610d029291906127ab565b60405180910390a1565b60008060009054906101000a900460ff16905090565b6060600b805480602002602001604051908101604052809291908181526020016000905b82821015610e1e578382906000526020600020906003020160405180606001604052908160008201548152602001600182018054610d8390612c8d565b80601f0160208091040260200160405190810160405280929190818152602001828054610daf90612c8d565b8015610dfc5780601f10610dd157610100808354040283529160200191610dfc565b820191906000526020600020905b815481529060010190602001808311610ddf57829003601f168201915b5050505050815260200160028201548152505081526020019060010190610d46565b50505050905090565b610e2f610d0c565b15610e6f576040517f08c379a0000000000000000000000000000000000000000000000000000000008152600401610e6690612893565b60405180910390fd5b600060019054906101000a900473ffffffffffffffffffffffffffffffffffffffff1673ffffffffffffffffffffffffffffffffffffffff163373ffffffffffffffffffffffffffffffffffffffff1614610eff576040517f08c379a0000000000000000000000000000000000000000000000000000000008152600401610ef690612933565b60405180910390fd5b6001600a60006101000a81548160ff021916908315150217905550565b60028054610f2990612c8d565b80601f0160208091040260200160405190810160405280929190818152602001828054610f5590612c8d565b8015610fa25780601f10610f7757610100808354040283529160200191610fa2565b820191906000526020600020905b815481529060010190602001808311610f8557829003601f168201915b505050505081565b610fb2610d0c565b15610ff2576040517f08c379a0000000000000000000000000000000000000000000000000000000008152600401610fe990612893565b60405180910390fd5b6000815111611036576040517f08c379a000000000000000000000000000000000000000000000000000000000815260040161102d906128d3565b60405180910390fd5b3373ffffffffffffffffffffffffffffffffffffffff16600060019054906101000a900473ffffffffffffffffffffffffffffffffffffffff1673ffffffffffffffffffffffffffffffffffffffff1614806110e2575060011515600560003373ffffffffffffffffffffffffffffffffffffffff1673ffffffffffffffffffffffffffffffffffffffff16815260200190815260200160002060009054906101000a900460ff161515145b611121576040517f08c379a000000000000000000000000000000000000000000000000000000000815260040161111890612873565b60405180910390fd5b8160008151811061115b577f4e487b7100000000000000000000000000000000000000000000000000000000600052603260045260246000fd5b602002602001015160019080519060200190611178929190611ee5565b50816001815181106111b3577f4e487b7100000000000000000000000000000000000000000000000000000000600052603260045260246000fd5b6020026020010151600290805190602001906111d0929190611ee5565b5060005b815181101561123957611226828281518110611219577f4e487b7100000000000000000000000000000000000000000000000000000000600052603260045260246000fd5b60200260200101516119d9565b808061123190612d0a565b9150506111d4565b505050565b600060019054906101000a900473ffffffffffffffffffffffffffffffffffffffff1673ffffffffffffffffffffffffffffffffffffffff163373ffffffffffffffffffffffffffffffffffffffff16146112ce576040517f08c379a00000000000000000000000000000000000000000000000000000000081526004016112c590612933565b60405180910390fd5b6112d6611b5a565b7f62e78cea01bee320cd4e420270b5ea74000d11b0c9f74754ebdbfc544b05a2586112ff611815565b60405161130c919061276e565b60405180910390a1565b600060019054906101000a900473ffffffffffffffffffffffffffffffffffffffff1681565b600060603373ffffffffffffffffffffffffffffffffffffffff16600060019054906101000a900473ffffffffffffffffffffffffffffffffffffffff1673ffffffffffffffffffffffffffffffffffffffff1614806113ec575060011515600560003373ffffffffffffffffffffffffffffffffffffffff1673ffffffffffffffffffffffffffffffffffffffff16815260200190815260200160002060009054906101000a900460ff161515145b61142b576040517f08c379a000000000000000000000000000000000000000000000000000000000815260040161142290612853565b60405180910390fd5b60095460088080548060200260200160405190810160405280929190818152602001828054801561147b57602002820191906000526020600020905b815481526020019060010190808311611467575b50505050509050915091509091565b60066020528060005260406000206000915054906101000a900460ff1681565b60006114b98360035484611bfc565b905092915050565b600a60009054906101000a900460ff1681565b6114dc610d0c565b1561151c576040517f08c379a000000000000000000000000000000000000000000000000000000000815260040161151390612893565b60405180910390fd5b600060019054906101000a900473ffffffffffffffffffffffffffffffffffffffff1673ffffffffffffffffffffffffffffffffffffffff163373ffffffffffffffffffffffffffffffffffffffff16146115ac576040517f08c379a00000000000000000000000000000000000000000000000000000000081526004016115a390612933565b60405180910390fd5b80600060016101000a81548173ffffffffffffffffffffffffffffffffffffffff021916908373ffffffffffffffffffffffffffffffffffffffff16021790555050565b60035481565b60056020528060005260406000206000915054906101000a900460ff1681565b600a60019054906101000a900460ff1615611666576040517f08c379a000000000000000000000000000000000000000000000000000000000815260040161165d906128f3565b60405180910390fd5b600a60009054906101000a900460ff166116b5576040517f08c379a00000000000000000000000000000000000000000000000000000000081526004016116ac906128b3565b60405180910390fd5b611726828280806020026020016040519081016040528093929190818152602001838360200280828437600081840152601f19601f820116905080830192505050505050503360405160200161170b9190612753565b604051602081830303815290604052805190602001206114aa565b611765576040517f08c379a000000000000000000000000000000000000000000000000000000000815260040161175c90612973565b60405180910390fd5b61176f8333611c13565b505050565b61177c610d0c565b6117bb576040517f08c379a00000000000000000000000000000000000000000000000000000000081526004016117b290612833565b60405180910390fd5b60008060006101000a81548160ff0219169083151502179055507f5db9ee0a495bf2e6ff9c91a7834c1ba4fdd244a5e8aa4e537bd38aeae4b073aa6117fe611815565b60405161180b919061276e565b60405180910390a1565b600033905090565b60006060611829610d0c565b15611869576040517f08c379a000000000000000000000000000000000000000000000000000000000815260040161186090612893565b60405180910390fd5b60005b6004548110156119795760095460076000838152602001908152602001600020600201541115611905576007600082815260200190815260200160002060020154600981905550600860006118c19190611f6b565b600860076000838152602001908152602001600020600001549080600181540180825580915050600190039060005260206000200160009091909190915055611966565b60095460076000838152602001908152602001600020600201541415611965576008600760008381526020019081526020016000206000015490806001815401808255809150506001900390600052602060002001600090919091909150555b5b808061197190612d0a565b91505061186c565b506009546008808054806020026020016040519081016040528092919081815260200182805480156119ca57602002820191906000526020600020905b8154815260200190600101908083116119b6575b50505050509050915091509091565b6119e1610d0c565b15611a21576040517f08c379a0000000000000000000000000000000000000000000000000000000008152600401611a1890612893565b60405180910390fd5b604051806060016040528060045481526020018281526020016000815250600760006004548152602001908152602001600020600082015181600001556020820151816001019080519060200190611a7a929190611ee5565b5060408201518160020155905050600b6040518060600160405280600454815260200183815260200160008152509080600181540180825580915050600190039060005260206000209060030201600090919091909150600082015181600001556020820151816001019080519060200190611af7929190611ee5565b506040820151816002015550507f78d27a3c512303f604b46bc28acc0ca45abe6420172a017c5a6dc585821eb63960045482604051611b379291906129de565b60405180910390a160046000815480929190611b5290612d0a565b919050555050565b611b62610d0c565b15611ba2576040517f08c379a0000000000000000000000000000000000000000000000000000000008152600401611b9990612893565b60405180910390fd5b60016000806101000a81548160ff0219169083151502179055507f62e78cea01bee320cd4e420270b5ea74000d11b0c9f74754ebdbfc544b05a258611be5611815565b604051611bf2919061276e565b60405180910390a1565b600082611c098584611e12565b1490509392505050565b611c1b610d0c565b15611c5b576040517f08c379a0000000000000000000000000000000000000000000000000000000008152600401611c5290612893565b60405180910390fd5b8160045481108015611c6e575060008110155b611cad576040517f08c379a0000000000000000000000000000000000000000000000000000000008152600401611ca490612913565b60405180910390fd5b600660008373ffffffffffffffffffffffffffffffffffffffff1673ffffffffffffffffffffffffffffffffffffffff16815260200190815260200160002060009054906101000a900460ff1615611d3a576040517f08c379a0000000000000000000000000000000000000000000000000000000008152600401611d3190612953565b60405180910390fd5b6001600660008473ffffffffffffffffffffffffffffffffffffffff1673ffffffffffffffffffffffffffffffffffffffff16815260200190815260200160002060006101000a81548160ff021916908315150217905550600760008481526020019081526020016000206002016000815480929190611db990612d0a565b91905055507fd3ebd88818d034d26c5d98bcef9c7c45207130238e76e8cf0b3ba00e906851bf836007600086815260200190815260200160002060020154604051611e05929190612a4c565b60405180910390a1505050565b60008082905060005b8451811015611ea2576000858281518110611e5f577f4e487b7100000000000000000000000000000000000000000000000000000000600052603260045260246000fd5b60200260200101519050808311611e8157611e7a8382611ead565b9250611e8e565b611e8b8184611ead565b92505b508080611e9a90612d0a565b915050611e1b565b508091505092915050565b600082600052816020526040600020905092915050565b60405180606001604052806000815260200160608152602001600081525090565b828054611ef190612c8d565b90600052602060002090601f016020900481019282611f135760008555611f5a565b82601f10611f2c57805160ff1916838001178555611f5a565b82800160010185558215611f5a579182015b82811115611f59578251825591602001919060010190611f3e565b5b509050611f679190611f8c565b5090565b5080546000825590600052602060002090810190611f899190611f8c565b50565b5b80821115611fa5576000816000905550600101611f8d565b5090565b6000611fbc611fb784612a9a565b612a75565b90508083825260208201905082856020860282011115611fdb57600080fd5b60005b8581101561200b5781611ff1888261218c565b845260208401935060208301925050600181019050611fde565b5050509392505050565b600061202861202384612ac6565b612a75565b9050808382526020820190508285602086028201111561204757600080fd5b60005b8581101561209157813567ffffffffffffffff81111561206957600080fd5b80860161207689826121a1565b8552602085019450602084019350505060018101905061204a565b5050509392505050565b60006120ae6120a984612af2565b612a75565b9050828152602081018484840111156120c657600080fd5b6120d1848285612c4b565b509392505050565b6000813590506120e8816130e9565b92915050565b60008083601f84011261210057600080fd5b8235905067ffffffffffffffff81111561211957600080fd5b60208301915083602082028301111561213157600080fd5b9250929050565b600082601f83011261214957600080fd5b8135612159848260208601611fa9565b91505092915050565b600082601f83011261217357600080fd5b8135612183848260208601612015565b91505092915050565b60008135905061219b81613100565b92915050565b600082601f8301126121b257600080fd5b81356121c284826020860161209b565b91505092915050565b6000813590506121da81613117565b92915050565b6000602082840312156121f257600080fd5b6000612200848285016120d9565b91505092915050565b6000806040838503121561221c57600080fd5b600083013567ffffffffffffffff81111561223657600080fd5b61224285828601612138565b92505060206122538582860161218c565b9150509250929050565b6000806040838503121561227057600080fd5b600083013567ffffffffffffffff81111561228a57600080fd5b61229685828601612162565b925050602083013567ffffffffffffffff8111156122b357600080fd5b6122bf85828601612162565b9150509250929050565b6000602082840312156122db57600080fd5b60006122e9848285016121cb565b91505092915050565b60008060006040848603121561230757600080fd5b6000612315868287016121cb565b935050602084013567ffffffffffffffff81111561233257600080fd5b61233e868287016120ee565b92509250509250925092565b600061235683836126e5565b905092915050565b600061236a8383612735565b60208301905092915050565b61237f81612bf9565b82525050565b61239661239182612bf9565b612d53565b82525050565b60006123a782612b58565b6123b18185612bab565b9350836020820285016123c385612b23565b8060005b858110156123ff57848403895281516123e0858261234a565b94506123eb83612b84565b925060208a019950506001810190506123c7565b50829750879550505050505092915050565b600061241c82612b63565b6124268185612bbc565b935061243183612b33565b8060005b83811015612462578151612449888261235e565b975061245483612b91565b925050600181019050612435565b5085935050505092915050565b600061247a82612b6e565b6124848185612bbc565b935061248f83612b43565b8060005b838110156124c7576124a482612e04565b6124ae888261235e565b97506124b983612b9e565b925050600181019050612493565b5085935050505092915050565b6124dd81612c0b565b82525050565b6124ec81612c17565b82525050565b60006124fd82612b79565b6125078185612bcd565b9350612517818560208601612c5a565b61252081612e17565b840191505092915050565b600061253682612b79565b6125408185612bde565b9350612550818560208601612c5a565b61255981612e17565b840191505092915050565b6000612571601483612bde565b915061257c82612e42565b602082019050919050565b6000612594602e83612bde565b915061259f82612e6b565b604082019050919050565b60006125b7602d83612bde565b91506125c282612eba565b604082019050919050565b60006125da601083612bde565b91506125e582612f09565b602082019050919050565b60006125fd603083612bde565b915061260882612f32565b604082019050919050565b6000612620602183612bde565b915061262b82612f81565b604082019050919050565b6000612643601e83612bde565b915061264e82612fd0565b602082019050919050565b6000612666601a83612bde565b915061267182612ff9565b602082019050919050565b6000612689602483612bde565b915061269482613022565b604082019050919050565b60006126ac601883612bde565b91506126b782613071565b602082019050919050565b60006126cf602d83612bde565b91506126da8261309a565b604082019050919050565b60006060830160008301516126fd6000860182612735565b506020830151848203602086015261271582826124f2565b915050604083015161272a6040860182612735565b508091505092915050565b61273e81612c41565b82525050565b61274d81612c41565b82525050565b600061275f8284612385565b60148201915081905092915050565b60006020820190506127836000830184612376565b92915050565b600060208201905081810360008301526127a3818461239c565b905092915050565b600060408201905081810360008301526127c5818561246f565b90506127d46020830184612744565b9392505050565b60006020820190506127f060008301846124d4565b92915050565b600060208201905061280b60008301846124e3565b92915050565b6000602082019050818103600083015261282b818461252b565b905092915050565b6000602082019050818103600083015261284c81612564565b9050919050565b6000602082019050818103600083015261286c81612587565b9050919050565b6000602082019050818103600083015261288c816125aa565b9050919050565b600060208201905081810360008301526128ac816125cd565b9050919050565b600060208201905081810360008301526128cc816125f0565b9050919050565b600060208201905081810360008301526128ec81612613565b9050919050565b6000602082019050818103600083015261290c81612636565b9050919050565b6000602082019050818103600083015261292c81612659565b9050919050565b6000602082019050818103600083015261294c8161267c565b9050919050565b6000602082019050818103600083015261296c8161269f565b9050919050565b6000602082019050818103600083015261298c816126c2565b9050919050565b60006020820190506129a86000830184612744565b92915050565b60006040820190506129c36000830185612744565b81810360208301526129d58184612411565b90509392505050565b60006040820190506129f36000830185612744565b8181036020830152612a05818461252b565b90509392505050565b6000606082019050612a236000830186612744565b8181036020830152612a35818561252b565b9050612a446040830184612744565b949350505050565b6000604082019050612a616000830185612744565b612a6e6020830184612744565b9392505050565b6000612a7f612a90565b9050612a8b8282612cd9565b919050565b6000604051905090565b600067ffffffffffffffff821115612ab557612ab4612dd5565b5b602082029050602081019050919050565b600067ffffffffffffffff821115612ae157612ae0612dd5565b5b602082029050602081019050919050565b600067ffffffffffffffff821115612b0d57612b0c612dd5565b5b612b1682612e17565b9050602081019050919050565b6000819050602082019050919050565b6000819050602082019050919050565b60008190508160005260206000209050919050565b600081519050919050565b600081519050919050565b600081549050919050565b600081519050919050565b6000602082019050919050565b6000602082019050919050565b6000600182019050919050565b600082825260208201905092915050565b600082825260208201905092915050565b600082825260208201905092915050565b600082825260208201905092915050565b6000819050919050565b6000612c0482612c21565b9050919050565b60008115159050919050565b6000819050919050565b600073ffffffffffffffffffffffffffffffffffffffff82169050919050565b6000819050919050565b82818337600083830152505050565b60005b83811015612c78578082015181840152602081019050612c5d565b83811115612c87576000848401525b50505050565b60006002820490506001821680612ca557607f821691505b60208210811415612cb957612cb8612da6565b5b50919050565b6000612cd2612ccd83612e35565b612bef565b9050919050565b612ce282612e17565b810181811067ffffffffffffffff82111715612d0157612d00612dd5565b5b80604052505050565b6000612d1582612c41565b91507fffffffffffffffffffffffffffffffffffffffffffffffffffffffffffffffff821415612d4857612d47612d77565b5b600182019050919050565b6000612d5e82612d65565b9050919050565b6000612d7082612e28565b9050919050565b7f4e487b7100000000000000000000000000000000000000000000000000000000600052601160045260246000fd5b7f4e487b7100000000000000000000000000000000000000000000000000000000600052602260045260246000fd5b7f4e487b7100000000000000000000000000000000000000000000000000000000600052604160045260246000fd5b6000612e108254612cbf565b9050919050565b6000601f19601f8301169050919050565b60008160601b9050919050565b60008160001c9050919050565b7f5061757361626c653a206e6f7420706175736564000000000000000000000000600082015250565b7f6f6e6c792074656163686572732f63686169726d616e2063616e206d616b652060008201527f726573756c7473207075626c6963000000000000000000000000000000000000602082015250565b7f6f6e6c792074656163686572732f63686169726d616e2063616e2063616c6c2060008201527f746869732066756e6374696f6e00000000000000000000000000000000000000602082015250565b7f5061757361626c653a2070617573656400000000000000000000000000000000600082015250565b7f506c6561736520636865636b206261636b2c2074686520656c656374696f6e2060008201527f686173206e6f7420737461727465642100000000000000000000000000000000602082015250565b7f61746c65617374206f6e6520706572736f6e2073686f756c6420636f6e74657360008201527f7400000000000000000000000000000000000000000000000000000000000000602082015250565b7f536f7272792c2074686520456c656374696f6e2068617320656e646564210000600082015250565b7f496e76616c69642063616e64696461746520746f20566f746521000000000000600082015250565b7f6f6e6c792063686169726d616e2063616e2063616c6c20746869732066756e6360008201527f74696f6e00000000000000000000000000000000000000000000000000000000602082015250565b7f566f7465722068617320616c726561647920566f746564210000000000000000600082015250565b7f736f7272792c206f6e6c79207374616b65686f6c646572732061726520656c6960008201527f6769626c6520746f20766f746500000000000000000000000000000000000000602082015250565b6130f281612bf9565b81146130fd57600080fd5b50565b61310981612c17565b811461311457600080fd5b50565b61312081612c41565b811461312b57600080fd5b5056fea2646970667358221220a026721f09e0104e1aea95ce4eb605e1732f6c23b410cf450efc6c568e8198e264736f6c63430008040033",
  "linkReferences": {},
  "deployedLinkReferences": {}
}